:020000040800F2
:1000000010090020810200089925000855250008E4
:1000100095250008E31D0008133D000800000000BE
:100020000000000000000000000000006530000833
:10003000851F0008000000000D2C00087134000826
:100040009B0200089B0200089B0200089B0200081C
:100050009B0200089B0200089B0200089B0200080C
:100060009B0200089B0200089B0200089B020008FC
:100070009B0200089B0200089B0200089B020008EC
:100080009B0200089B0200089B0200089B020008DC
:100090009B0200089B0200089B0200089B020008CC
:1000A0009B0200089B0200089B0200089B020008BC
:1000B0009B0200089B0200089B0200089B020008AC
:1000C0009B0200089B0200089B0200089B0200089C
:1000D0009B020008253A00089B0200089B020008CA
:1000E0009B0200089B0200089B0200089B0200087C
:1000F0009B0200089B0200089B0200089B0200086C
:100100009B0200089B020008D53400089B020008EF
:100110009B0200089B0200089B0200089B0200084B
:100120009B0200089B0200089B0200089B0200083B
:1001300000F002F800F094F80AA090E8000C824465
:100140008344AAF10107DA4501D100F089F8AFF242
:10015000090EBAE80F0013F0010F18BFFB1A43F0A5
:100160000103184780540000A0540000103A24BF37
:1001700078C878C1FAD8520724BF30C830C144BF0C
:1001800004680C607047000000230024002500264E
:10019000103A28BF78C1FBD8520728BF30C148BFEA
:1001A0000B6070476E2900F03783702900F0978448
:1001B000662904F09C86652904F09986672904F075
:1001C0009686612904F0958603681B0A28BF41F0D2
:1001D0008001692900F03881642900F03581752992
:1001E00000F032816F2900F02484782900F06384C4
:1001F000E92900F0BF83E42900F0BC83F52900F071
:10020000B983EF2900F02184F82900F062840368A3
:10021000DB0928BF41F08001632900F04083732986
:1002200000F04583E32901F05F80F32901F0648049
:10023000002070471FB59DE8030000F025FA01F08B
:10024000B5F804000020002104F048FA401C60606A
:100250000020002104F02CFAE0601FBD10B510BD95
:1002600001F076F81146FFF7E5FF03F08FFF01F08C
:1002700053F903B4FFF7F2FF03BC01F083F9000068
:100280000948804709480047FEE7FEE7FEE7FEE72A
:10029000FEE7FEE7FEE7FEE7FEE7FEE70448054966
:1002A000054A064B7047000075340008310100080C
:1002B0001003002010090020100500201005002068
:1002C00070B5064600F0C4F9056806F10B0020F091
:1002D0000704B4429CBF002070BD2B466A68BAB1C7
:1002E0001068A04210D304F1080188423CBF506856
:1002F000586007D35168101941601168091B0160EB
:1003000058601460101D70BD13465268002AE7D172
:100310002146284600F0A4F90028DED170BD000077
:100320001CB50C46064B7B4469460090204600F005
:100330008CFA04460020694600F09AFA20461CBD5B
:10034000470500000FB41CB5084B06AA7B4469465C
:100350000090059800F079FA04460020694600F004
:1003600087FA20461CBC5DF814FB00002105000044
:100370000FB47CB50C0009AA009001D02044401EA7
:10038000084B7B4469460190089800F05EFA0546E8
:100390001CB10020694600F06BFA28467CBC5DF871
:1003A00014FB0000F504000070B504468569006880
:1003B000C10601D5302600E02026C00707D070BD59
:1003C000D4E9012130469047206A401C20626D1E0E
:1003D000F6D570BD70B5044685690078C00707D1B1
:1003E00070BDD4E9012120209047206A401C206282
:1003F0006D1EF6D570BD70B50C460546012A05D0B8
:100400002878800600D5EA69002302E0012305E090
:100410005B1C934202D2E05C0028F9D1A869E6187F
:10042000C01AA861286A184428622846FFF7BCFF52
:1004300004E0D5E9012114F8010B9047B442F8D348
:100440002846FFF7C7FF70BD2DE9F041064600249E
:1004500010687529314616A510D000F072F90028F1
:1004600002DA404213A507E031688A0701D512A5D8
:1004700002E0490704D511A5012401E000F06AF962
:1004800000210A2206F1240709E0B0FBF2FCB0FBD0
:10049000F2F302FB1C00303078541846491C002847
:1004A000F3D123462A463046BDE8F04100F05BB95F
:1004B000000000002D0000002B00000020000000C4
:1004C0002DE9F05F894604464FF0000ADFF874B169
:1004D000FB44C0F820A02046E1688847002874D07B
:1004E000252806D0D4E901219047206A401C2062CB
:1004F000F1E700265F462046E16888472028054648
:1005000007DB312D05D2781910F8200C08B106430D
:10051000F1E7B00701D526F00406C4F81CA00027B7
:10052000C4F818A02A2D09D0284603F057FD38B387
:1005300004EB8708303DC8F8185019E059F8041B3F
:10054000204604EB87029161E1688847012F054648
:1005500018D1E069002820DA26F020061DE0D8F83E
:10056000180000EB800005EB40003038C8F8180098
:100570002046E1688847054603F030FD0028EED1AB
:10058000012F0AD02E2D08D12046E16888477F1C14
:100590000546022F46F02006C4DBA069002803DAD6
:1005A000404246F00106A061F00701D026F0100697
:1005B0006C2D0BD0682D09D04C2D39D06A2D35D03B
:1005C000742D35D07A2D33D016E038E0E1682F460F
:1005D00020468847B842054609D16C2F26D04FF4F3
:1005E0008060E168064320468847054604E06C2F9A
:1005F0001AD04FF4807006430DB3A5F141001928BD
:1006000002D8203546F400664A4629462046266030
:100610004E46FFF7C7FD80B101280BD0F61D26F02E
:10062000070000F1080956E74020E4E78020D8E7FA
:100630000020D6E706F104094DE7284652E7206A74
:10064000BDE8F09F125000007047704770470000EF
:1006500000487047B80200207047704770477047E5
:1006600038B504460A4600206946AFF300800028EA
:1006700008BF38BD02460099204600F03FFA01202D
:1006800038BD012000F05CBEF8B5AFF30080054630
:1006900000200C46102000BF0646A819A0420DD924
:1006A000324669460020AFF30080070008BF00F023
:1006B00047FE0098A04218BF0546C419FFF7C8FFBF
:1006C00005600746F01D20F007004619284600F097
:1006D0000AF8B44208BFF8BDA21B31463868BDE82D
:1006E000F84000F00BBA00210160C0E9011070472A
:1006F0001020704770B50446051FFFF7A9FF00687A
:10070000002C14BF446870BD002C18BFAC423CBF25
:1007100020466468F8D301680A18AA4218BF4560E9
:1007200003D12A6805461144016028684119A14295
:100730001CBF6C6070BD61686960216808442860F6
:1007400070BD09684A0501D540B27047C905FCD59E
:1007500000B2704709684A0501D5C0B27047C905A3
:10076000FCD580B270472DE9F0470D469946924678
:10077000044600F124080168880604D5E06921F0E8
:100780001001216000E00120A84201DD471B00E0CC
:100790000027A1697A1902EB0900081AA0612078E4
:1007A000C00602D42046FFF7FFFD002608E0D4E98A
:1007B00001211AF806009047206A401C761C20622E
:1007C0004E45F4DB2078C0060AD52046FFF7ECFD45
:1007D00006E0D4E9012130209047206A401C2062C5
:1007E000381EA7F10107F4DC07E0D4E9012118F86D
:1007F00005009047206A401C2062281EA5F10105D3
:10080000F3DC2046FFF7E6FD2078000602D5022043
:10081000BDE8F0870120FBE711680268006A530514
:1008200001D508700AE0D30501D5088006E013065B
:1008300003D5C217C1E9000200E00860012070473B
:1008400001694A1C02610878704700B58FB0CDE994
:1008500001310021059105497944CDE90310114684
:100860006846FFF72DFE0FB000BD0000E5FFFFFF5B
:100870000A6802F8010B0A607047D1E900239A4226
:1008800002D2531C0B601070704710B5436913B14E
:10089000AFF3008001E0FFF7AEFD012010BD12783C
:1008A00000F124010A7000224A700122EDE711686C
:1008B0004FF0FF32E9E700002DE9FF5F15468A4659
:1008C0000446DFF8AC80F8440027D8E900103E4623
:1008D000CDE9001010E03AF816106A4602A800F0C0
:1008E0000FFD411C07D02178890603D5E26939182C
:1008F00091420DD80744761C2078800602D5E06925
:10090000B84205DDAE42E6DB3AF816000028E2D137
:10091000A069C01BA0612046FFF746FDD8E9001082
:10092000CDE90010002017E03AF818106A4602A836
:1009300000F0E6FCB0F1FF3F81460BD000250DF141
:10094000080B05E0D4E901211BF8050090476D1C58
:100950004D45F7D308F10100B0428046E4DB206A40
:10096000384420622046FFF735FDBDE8FF9F0000B8
:100970002E4C00002DE9F0418046D21D22F00702E6
:100980000025D2E90002F52915A614D0011E72F146
:10099000000106DA0023D0EB030063EB020211A68C
:1009A00008E0D8F800108B0701D50FA602E0490730
:1009B00001D50EA601251146002408F1240704E004
:1009C00000F0B6F830323A55641C50EA0102F7D113
:1009D0002B46324621464046BDE8F041FFF7C3BEF4
:1009E000000000002D0000002B000000200000008F
:1009F00030B4002100F1240408E002F00705D20819
:100A0000303542EA4372DB086554491C52EA03055B
:100A1000F3D10468002310A2250707D5A40600D44B
:100A200021B1C46901230DA2641EC46130BCFFF76B
:100A30009ABE10B5044621461068FFF78BFE0246A9
:100A40002046BDE810400023D2E7D21D22F0070166
:100A5000D1E90023CCE700000000000030000000D6
:100A6000F0B40D460188090502D5214C7C4402E012
:100A70001F4C7C440E34002100F1240608E002F0F3
:100A80000F071209E75D42EA03721B097754491CFC
:100A900052EA0307F3D102780023120704D5702D20
:100AA00006D009B1022311342246F0BCFFF75BBE29
:100AB00001231034F8E770B504460D46214610684E
:100AC000FFF748FE024629462046BDE87040002355
:100AD000C6E7D21D22F00703D3E90023C0E703686D
:100AE000126843F0200303600823C3610023B7E7C3
:100AF000904A000000487047B0020020034640685A
:100B00008C46002818BF88423CBF03464068F8D393
:100B100018681844884207D00CF1030020F0070041
:100B2000001D411A521A0146081D0A60FFF7E2BD76
:100B300030B5B0F10A024FEA900E71F100034EEAAF
:100B4000817EB0EB0E0061EB91014FEA101E4EEA80
:100B5000017E10EB0E0041EB11114FEA102E4EEA10
:100B6000016E10EB0E0041EB11214FEA104E4EEAE0
:100B7000014E10EB0E0041EB1141401841F1000114
:100B80004FEAD00040EA41704FEAD10110EB8005F6
:100B90004FEA810444EA907444EB01046D1944EB7C
:100BA0000404521BA3414FF0000348BF0A3200D592
:100BB00030BD401C41F1000130BD70472DE9FF4FB1
:100BC0000C461E464FF0FF378BB0D2E90001DDF82E
:100BD00060800A908A46C1F30A5505B93D46002156
:100BE00008464FF00000BAF1000F00F4400005DAAB
:100BF00000EB80004FF4400101EA50004FEA9059A9
:100C0000B9F1010F00DDB9460A9850EA4A000ED04A
:100C100044F61050A5F2FF3545432F14B8F1000FEC
:100C20001ED07542291E1EDDC9F100021CE0B8F17C
:100C3000010F4FF0000001D0302103E0F24305E046
:100C40002154401CB042FBDB3046002200212154DD
:100C50000B99C1F80880C1E900200FB0BDE8F08F02
:100C6000BD1B6D1CDEE74A4600DA694206A800F0AB
:100C7000E1FB06AB93E8070003AB83E807005046AF
:100C80000A9900F0E6FC8DE80700A0F500501F3837
:100C900000900398002D0ADD42F21F014A460844E5
:100CA000002303A90390684600F04FFF09E0A0F578
:100CB00000504A461F38002303A90390684600F0FD
:100CC00059FF8DE807000004000C03D04FF0FF30FF
:100CD000410800E01046B8F1000F03D00022009256
:100CE00015461EE0751E05D4FFF722FF303262550F
:100CF0006D1EF9D5B3460122084302D000227F1CA5
:100D000004E02078302801D100227F1E002A0997B4
:100D100084D01DE0112D07DAFFF70AFF303262554B
:100D20006D1C50EA0102F5D1084302D00098C8B109
:100D30000EE00021681E05E0235C625C63542254CF
:100D4000401E491C8142F7DBAB46A81B401E0990A0
:100D5000002004F80B000B98099AC0F80880C0E93D
:100D6000002B7AE711264FF0000857E72DE9F04FE6
:100D700088460446D21D22F0070191B0D1E9000156
:100D8000CDE90A0103F016F902460B98C00F01D015
:100D90002D2007E02068810701D52B2002E02021CB
:100DA00001EAC000032A099001D0072A05DB0346A7
:100DB0004146204600F0FEFA0BE12078800601D57E
:100DC000E06900E00620B8F1650F814606D0B8F171
:100DD000660F18D0B8F1670F70D131E00020B9F17B
:100DE000110F009001DB112301E009F101030AAAB0
:100DF00001A90CA8FFF7E2FEDDE90C70002609F15D
:100E00000105834647E001204B4600904FF0004724
:100E10000AAA01A90CA8FFF7D1FEDDE90DB00C99D3
:100E20005D46002610B909F101000D18B9EB050067
:100E300003D4C0F1FF3609F10105A5EB09002BE051
:100E4000B9F1010F01DA4FF001090020B9F1110FDA
:100E50000090484601DD112300E003460AAA01A9DB
:100E60000CA8FFF7ABFEDDE90C704D46002683466B
:100E7000207800070AD4AB4500DA5D4601A8012DB1
:100E800004DD411911F8011C302907D04F4502DA61
:100E900017F1040F04DA012082460FE06D1EEEE721
:100EA000002F02DCED1B3E4403E0781CA84200DD6D
:100EB0007D1CB81B00F1010A4FF0004720780007A5
:100EC00003D4AA4501DB4FF0FF3A0021B7F1004FF0
:100ED0000DF143088DF8431024D002202B23002F5E
:100EE00001DA7F422D230A21021EA0F1010000DC5D
:100EF0005FB197FBF1FC97FBF1F201FB1C7C1746FD
:100F00000CF1300C08F801CDEEE7A8F101000370F8
:100F10002188090501D5452100E06521A0F10108DE
:100F200000F8011C09980FA9A1EB0807FF1D00B1EB
:100F30000120411901EBEA70A1693844081A401EEA
:100F4000A0612078C00602D42046FFF72DFA099848
:100F500028B1D4E901219047206A401C2062207802
:100F6000C00622D52046FFF71FFA1EE0002E04DB44
:100F7000B34502DD01A8805D00E03020D4E9012105
:100F80009047206A401C2062761CAAF101005FEAAB
:100F9000000A0AD100F00AFAC0680168405CD4E98E
:100FA00001219047206A401C2062281EA5F10105FE
:100FB000DCDC07E0D4E9012118F8010B9047206A36
:100FC000401C2062381EA7F10107F3DC2046FFF722
:100FD00001FA032011B041E62DE9F04F04460D4619
:100FE000D21D22F0070089B0D0E900974846394663
:100FF00002F0E0FF0246F80F01D02D2307E0206841
:10100000810701D52B2302E0202101EAC0038DF8DE
:1010100020300BB1012000E00020032A824601D0DD
:10102000072A04DB2946204600F0C4F93FE1207876
:10103000800601D40D2500E0E569C7F30A560D2DA1
:1010400049DA00214FEA175B08464FF00000002FF5
:1010500000F4400007DA00EB80004FF4400100EBA1
:10106000D07001EA60008115012901DD4FF0FF31E8
:1010700000224FEA850CBCF1180F06D31346ACF1E1
:1010800018004FF08052C24003E04FF4801323FA5F
:101090000CF30CF10C0CBCF1200F04D3ACF1200CC0
:1010A00009FA0CF001E007FA0CF000294FF00048B3
:1010B00001DD18B90FE00ED140450CD319EB020940
:1010C0005F4121B9404502D19F4329EA0209BBEBA8
:1010D000175F00D0761C2088000502D57B48784435
:1010E00002E07A487844193808AA302302F80A3016
:1010F000037C0AF10101002E0AF1020A53546A46E8
:1011000002DC4FF0300101E04FF031014FF00108F7
:101110008DF8001002D0A6F2FF3603E059EA47012D
:1011200000D06B4E002D02DC2178090704D54FF06A
:1011300002082E218DF80110C44600210BE0C7F3F0
:1011400003433F01C35C491C6D1E02F808300529AA
:1011500008F1010801DA002DF1DC00210CE000EBC0
:101160001973491C1B786D1E082902F808304FEAD4
:10117000091908F1010801DA002DF0DC21688B065D
:1011800002D516E0A8F10108E04505DD02EB0803F1
:1011900013F8013C302BF5D0B8F1000F09DD02EB5C
:1011A000080313F8013C2E2B03D1090701D4A8F141
:1011B0000108002D05DD3E2102F808106D1E08F122
:1011C0000108407C002E02F8080008F1010804DA4A
:1011D0002D20764202F8080002E02B2002F80800D9
:1011E0000A214FF47A70864208F101080BDB96FB66
:1011F000F0F3303302F8083096FBF0F308F1010801
:1012000000FB136601E0642E0CDB642096FBF0F318
:10121000303302F8083096FBF0F308F1010800FBC8
:10122000136601E00A2E06DB96FBF1F0303002F87F
:10123000080008F1010896FBF1F001FB1060303066
:1012400002F80800A16908F1010808EB050202EBA9
:101250000A00081AA0612078C00602D42046FFF7D1
:10126000A3F8216A08AE01EB0A00206204E0D4E989
:10127000012116F8010B9047BAF1010AF7D2207844
:10128000C00602D52046FFF78FF86E4609E016F833
:10129000010B3E280FD0D4E901219047206A401C61
:1012A0002062B8F10108F2D22046FFF793F809B0A6
:1012B0000320BDE8F08F206A2844206203E0D4E9CF
:1012C0000121302090476D1EEBD3F8E75944000010
:1012D00002FCFFFF10B5436913B1AFF3008001E0DA
:1012E000FFF7EAFA012010BD128800F12401828480
:1012F0000022C2840122EDE711684FF0FF32E9E7D6
:1013000070B516460C46054600F048F8036893F899
:101310000101012806D0FF2C0FD8185D68B101200B
:101320002C7070BDD3F807013246214603F2071333
:1013300003442846BDE8704018474FF0FF3070BDA9
:1013400010B500F0F7F8BDE8104000F0EEB87047B7
:101350007546FFF7CFFBAE4605006946534620F0C1
:101360000700854618B020B5FEF798FFBDE820407D
:101370004FF000064FF000074FF000084FF0000B51
:1013800021F00701AC46ACE8C009ACE8C009ACE804
:10139000C009ACE8C0098D467047000010B500F0E8
:1013A00005F8001D10BD00BF353300000048704730
:1013B000D00200202DE9F0411F46044603260168B3
:1013C000072A01F4006004DB08B116A505E016A5A4
:1013D00003E008B115A500E015A521F0100020607C
:1013E000A069C01EA0610FB1401EA0612046FEF79B
:1013F000DBFF4FB1D4E9012138469047206A401CF9
:101400002062C01C206206E0206AFAE7D4E90121CC
:1014100015F8010B9047761EF8D22046FEF7DAFF4A
:10142000BDE8F0814E414E006E616E00494E4600AF
:10143000696E66002DE9F047814616468AB0354848
:1014400078440DC88DE80D0032487844801C03AC08
:101450000DC884E80D0041F69B300844372190FB0D
:10146000F1F290FBF1F5A5F1800501FB12041B3CA4
:1014700002D56442012000E00020DFF898A08046F9
:101480000027FA44AAF1BE0A0EE0E0070AD032466D
:10149000684607EB470101230AEB810100F06AFB74
:1014A0008DE8070064107F1C002CEED1194F7F449B
:1014B000AE3F19E0E80715D007EB04100DF1180A4C
:1014C00090E80E008AE80E00C068F04201D1981939
:1014D00008903246012306A903A800F04BFB03AB9A
:1014E00083E807006D10641C002DE3D14FF0010369
:1014F00032466946B8F1000F03A802D000F025FB80
:1015000001E000F037FBC9E90001C9F808200AB082
:10151000BDE8F0878841000010B50446AFF30080B5
:101520002046BDE81040FEF7A4BE002801D000F020
:1015300029B8704710B5012805D0002103A000F09C
:1015400027F8012010BD09A1F8E7000053494752D0
:10155000544D454D3A204F7574206F662068656183
:1015600070206D656D6F7279000000003A2048654B
:101570006170206D656D6F727920636F7272757026
:101580007465640001491820ABBEFEE72600020026
:1015900070B505460C460A2000E06D1C00F052F8BC
:1015A00035B128780028F8D102E0641C00F04AF830
:1015B00014B120780028F8D1BDE870400A2000F06E
:1015C00041B800004FF0013C50F8042B51F8043BA7
:1015D0009A4221D1A2EB0C03934313EACC1317D107
:1015E00050F8042B51F8043B9A4215D1A2EB0C039E
:1015F000934313EACC130BD150F8042B51F8043B5E
:101600009A4209D1A2EB0C03934313EACC13DBD02B
:101610004FF00000704700BFD01A01BAB1FA81F153
:1016200001F0180122FA01F0CB40C1F12001DBB238
:10163000C0B2C01A2CFA01F3D11A914311EAC311B6
:10164000E6D1704708B569468DF800000320ABBEAF
:1016500008BD5FEA400C08BF91F0000F4FEA8C23F1
:101660004FEAC12243EA51514FEA1C5018BF00F51E
:10167000F0404FEA300018BF41F000415FEA6C5C77
:1016800000F02980BCF1FF3F08BF40F08040704768
:10169000130C06BF12044FF0100C4FF0000C130E89
:1016A00004BF12020CF1080C130F04BF12010CF15D
:1016B000040C930F04BF92000CF1020CD30F04BF73
:1016C00052000CF1010C11464FF00002A0F11F0076
:1016D000A0EB0C00704711F0004F08BF704731F0CD
:1016E00000413FF4D5AF0B0C06BF09044FF0100CBE
:1016F0004FF0000C0B0E04BF09020CF1080C0B0F8D
:1017000004BF09010CF1040C8B0F04BF89000CF11C
:10171000020CCB0F04BF49000CF1010CCCF12003EB
:10172000A0EB0C0022FA03F302FA0CF241EA0301E7
:1017300000F10100704720F07F4C80EA030023F0A5
:101740007F47ACEB070303F57C5300F0004003F147
:10175000FF032DE980494FEA154B09B44FEA1443C2
:1017600025EA0B4E24EA03480FF2042606EB132762
:1017700049083E785FEA320203FB0667C7F50007B7
:1017800007FB06F64FEA54374FEAD64606F1020643
:1017900007FB066CCCF1005C4FEA1C472CEA074CB7
:1017A00007FB06F40CFB06F504EB15464FEA96160C
:1017B00034BF00204FF000404FEAD13706FB07FC52
:1017C0004FEA1C4C0CFB0BF7D21B03FB0CF761EB35
:1017D00007010CFB0EF7B0EB074072EB17420CFB56
:1017E00008F734BFA2EB0742B2EB074261EB1741A7
:1017F0004FEA0C444FEA910706FB07FC4FEA1C4CEA
:101800000CFB0BF7B0EBC74072EB573203FB0CF746
:1018100034BFA2EBC742B2EBC74261EB57310CFBBE
:101820000EF7B0EBC70072EB57720CFB08F734BF32
:10183000A2EBC702B2EBC70261EB5771039F4FEAFD
:10184000816141EA921104EBCC044FEAD1374FEAAF
:10185000826206FB07FC42EA90124FEA80604FEA80
:101860001C4C0CFB0BF7D21B03FB0CF761EB0701C5
:101870000CFB0EF7B0EB074072EB17420CFB08F7BE
:1018800034BFA2EB0742B2EB074261EB17414FEACC
:101890008C554FEA910704EB9C2406FB07FC4FEAAA
:1018A0001C4C0CFB0BF7B0EBC74072EB573203FB41
:1018B0000CF734BFA2EBC742B2EBC74261EB573122
:1018C0000CFB0EF7B0EBC70072EB57720CFB08F77E
:1018D00034BFA2EBC702B2EBC70261EB577115EB45
:1018E0004C254FEA816141EA92114FEA82624FEA48
:1018F000D13742EA901206FB07FC44F100044FEA9C
:1019000080604FEA1C4C0CFB0BF7D21B03FB0CF75F
:1019100061EB07010CFB0EF7B0EB074072EB1742CF
:101920000CFB08F734BFA2EB0742B2EB074261EBB6
:10193000174115EB1C154FEA813141EA92414FEAFC
:10194000823242EA90424FEA80304FEA0C7644F10C
:10195000000448EA03434EEA0B484FF0000EB2EB96
:10196000080C71EB030724BF624639464EEB0E0E9E
:101970004FF0000B0018524149414BEB0B0BB2EBFF
:10198000080C71EB03077BF1000B24BF624639465C
:101990004EEB0E0E4FF0000B0018524149414BEB3D
:1019A0000B0BB2EB080C71EB03077BF1000B24BFB0
:1019B000624639464EEB0E0E51EA020718BF46F05A
:1019C000010616EB0E7655F1000254F1000103D525
:1019D000BDE88901BDE80088BDE88901BDE800488F
:1019E000B619524141EB0101A3F101037047808018
:1019F0007F7E7D7C7B7A7978777676757473727169
:101A000071706F6E6E6D6C6C6B6A6A696868676620
:101A100066656464636362616160605F5F5E5E5DB2
:101A20005D5C5C5B5B5A5A59595858575756565526
:101A300055555454535352525251515050504F4F88
:101A40004F4E4E4D4D4D4C4C4C4B4B4B4A4A4A49D8
:101A5000494948484847474747464646454545441B
:101A60004444444343434342424242414141002BA8
:101A70009C4630D477002BD01CB54FEA370703B40F
:101A80004FF010004FF01001BAF1000F06D0BCF17A
:101A9000000FDCBF40F0080040F008014FF00000EC
:101AA0000FBCBDE810400BF1010BBBF1010F08BFEB
:101AB0005FEA170722BF12F1010211F101014FF095
:101AC000004143F1000300F0004043EA000070478A
:101AD000F9D35708D0E746EA064613F1400F4FEA1C
:101AE00016461FDD13F1200FDFBF16430A46002103
:101AF00020335B42BED0C3F1200746EA064602FA15
:101B000007F74FEA164646EA0706C3F1200722FA0E
:101B100003F201FA07F721FA03F14FF0000342EA5A
:101B20000702A7E746EA020646EA06464FEA1646D5
:101B300046EA0106BCBF46EA0646360C4FF00003F3
:101B40004FF000024FF0000194E72DE9804C9A46D7
:101B5000934670B491E8380007C831EA400C48BF9A
:101B600034EA430C03D5FFF7E6FDFFF780FFF0BC36
:101B7000BDE8008C2DE9804C9A46934670B491E8FC
:101B8000380007C810F0804F08BF13F0804F03D112
:101B900000F005F8FFF76BFFF0BCBDE8008C20F00B
:101BA0007F4780EA030023F07F4C07EB0C03A3F58B
:101BB0007C5300F00040A3F1FE0392F0000F00F010
:101BC000B38095F0000F00F077802DE901494FEACE
:101BD00011404FEA144621EA004800FB06FC24EAC3
:101BE000064708FB06F607FB08F800FB07F718EBAB
:101BF00006484CEB164C4FEA124B18EB07484FEADD
:101C000015464CEB174022EA0B4E0BFB06FC25EA6F
:101C100006470EFB06F607FB0EFE0BFB07F71EEB57
:101C2000064E4CEB164C4FF000061EEB074E4CEBED
:101C3000174B18EB0B0840F1000018EB0E0B58EB9C
:101C4000000840F100008F1A4FF000013CBFC9436B
:101C5000661B14BFB5EB040C00213CBFC943F61B47
:101C60004FEA17444EEA8E0E27EA04454FEA1C4716
:101C700004FB07622CEA074C05FB07F70CFB05F693
:101C800004FB0CFC16EB074642EB174216EB0C4626
:101C900042EB1C421BEB060658EB0202414146EAAE
:101CA0009E0601D5BDE80189B619524141EB0101FB
:101CB000A3F10103BDE801894FEA14454FEA11473A
:101CC00024EA054621EA074C05FB07F406FB07F763
:101CD0000CFB06F105FB0CFC11EB074144EB174430
:101CE0004FEA124711EB0C4144EB1C4422EA074C2B
:101CF00005FB07F206FB07F70CFB06F605FB0CFCE1
:101D000016EB074642EB174216EB0C4642EB1C451E
:101D10006A1854F1000148BF7047B619524141EBAF
:101D20000101A3F10103704795F0000F37D04FEA8E
:101D300011424FEA144721EA024624EA074C02FB0B
:101D400007F106FB07F70CFB06F402FB0CFC14EB97
:101D5000074441EB17414FEA154714EB0C4441EBA4
:101D60001C4125EA074C02FB07F506FB07F70CFBB5
:101D700006F602FB0CFC16EB074645EB174516EB87
:101D80000C4645EB1C42121951F1000148BF704747
:101D9000B619524141EB0101A3F1010370474FEA2B
:101DA00014454FEA114724EA054621EA074C05FB92
:101DB00007F106FB07F70CFB06F24FF0000605FBE8
:101DC0000CFC12EB074241EB174112EB0C4251EBBA
:101DD0001C4148BF7047921841EB0101A3F1010378
:101DE000704700BFFEE7000070B50446002510E014
:101DF000605D68B1615D074801F07BFF00BF802135
:101E0000044801F038FE0028F9D0681C85B200E0D3
:101E100070BDEDE700500040F8B504460D4616468B
:101E20005A220021204602F00FF90446B422002174
:101E3000284602F009F9054675224821304602F08D
:101E400003F90646A1B200230C480288042002F0E0
:101E500091FA284600F014F84820752364220021E6
:101E60000090304602F05AFA0746B9B200234FF408
:101E70007A72082002F07EFAF8BD00007C00002093
:101E800070B592B00646B4220021304602F0DCF86C
:101E9000064630A20121022000F05CFD05233246F7
:101EA0000321022000F034FD4FF4FA607043B421A6
:101EB00090FBF1F000F5FA7084B24FF4FA607043D1
:101EC00090FBF1F000F5FA7085B2B4F5FA7F02DA12
:101ED0004FF4FA7005E040F6C410844200DD00E0E3
:101EE00020460446B5F5FA7F02DA4FF4FA7005E0B1
:101EF00040F6C410854200DD00E028460546052373
:101F000022460321084600F003FD05232A4603214B
:101F1000042000F0FDFC23460FA210210EA8FEF7BE
:101F200027FA2B4610A210210AA8FEF721FA0AA8C8
:101F30000EAB11A22021009002A8FEF719FA02A808
:101F400002F002FA0EA20121032000F003FD12B0FC
:101F500070BD00005A00000023303130502530346D
:101F60006454313030302100233030365025303445
:101F70006454313030302100257325730000000097
:101F8000530000007047000008B50121080200F06E
:101F90006BFF48208DF8030003208DF802008002BB
:101FA000ADF800006946024800F0A0F808BD000046
:101FB000002001402DE9FF4706460F46154698468A
:101FC000DDE90D9A0C9C0020009001900290039096
:101FD0008DF80060FD208DF801008DF80270281248
:101FE0008DF80300E8B28DF804008DF80580200E0E
:101FF0008DF80600200C8DF80700200A8DF80800E7
:10200000E0B28DF809008DF80A908DF80BA06B20D6
:102010008DF80C000D226946024801F048F9BDE830
:10202000FF870000004C00407FB505460C460020AD
:1020300000900190029003908DF80050FE208DF8E2
:10204000010098208DF802008DF803406B208DF878
:10205000040005226946024801F029F97FBD00000D
:10206000004C00401FB504460020009001900290F3
:1020700003908DF80040FF208DF8010066208DF858
:1020800002006B208DF8030004226946014801F02C
:102090000EF91FBD004C00402DE9FF4105460F46DB
:1020A00014461E46DDF82880002000900190029022
:1020B00003908DF80050F6208DF801008DF8027025
:1020C00020128DF80300E0B28DF804008DF8056051
:1020D0008DF806806B208DF80700082269460248BB
:1020E00001F0E5F8BDE8FF81004C00402DE9F0412A
:1020F000024600250026002000230024002791F836
:1021000003C00CF00F0591F803C00CF0100CBCF1EB
:10211000000F03D091F802C04CEA050591F800C009
:10212000BCF1000F31D0146800202BE04FF0010CFF
:102130000CFA00F3B1F800C00CEA03069E4220D16D
:1021400083004FF00F0C0CFA03F7BC4305FA03FCB5
:102150004CEA040491F803C0BCF1280F06D14FF0FB
:10216000010C0CFA00FCC2F814C00AE091F803C09C
:10217000BCF1480F05D14FF0010C0CFA00FCC2F87D
:1021800010C0401C0828D1D31460B1F800C0BCF1C5
:10219000FF0F34DD546800202EE000F1080C4FF0F2
:1021A000010808FA0CF3B1F800C00CEA03069E42DD
:1021B00021D183004FF00F0C0CFA03F7BC4305FA52
:1021C00003FC4CEA040491F803C0BCF1280F05D1CC
:1021D00000F1080C08FA0CF8C2F8148091F803C05A
:1021E000BCF1480F07D100F1080C4FF0010808FAC4
:1021F0000CF8C2F81080401C0828CED35460BDE80B
:10220000F0810246002093680B400BB1012000E0F2
:10221000002070470AB1016100E0416170472DE97B
:10222000F04F87B006460F4614461D46DDF8408045
:102230004FF000093946304602F038F800881FFA9E
:1022400080FA3946304602F031F880881FFA80FB68
:10225000CBF1000001B2CAF1000000B201F05BFD59
:102260004FF47A7001F01EFF4FF47A7001F01AFFFC
:102270004FF4FA7001F016FF2A4649462046FFF750
:10228000CBFD4FF47A7001F00DFF4FF4FA7001F0BE
:1022900009FF0020FFF7F4FD4FF47A7001F002FF10
:1022A0004FF4FA7001F0FEFE01F042FD4FF47A7037
:1022B00001F0F8FE4FF47A7001F0F4FE4FF4FA707A
:1022C00001F0F0FE08F0FF0101A801F037FF01A8BE
:1022D00007C804AB07C3059A11B2049A10B201F003
:1022E0001AFD4FF47A7001F0DDFE4FF47A7001F0C0
:1022F000D9FE4FF4FA7001F0D5FE00F05BFE01F05C
:1023000017FD4FF47A7001F0CDFE4FF47A7001F0B2
:10231000C9FE4FF47A7001F0C5FE07B0BDE8F08F3A
:1023200008B50121082000F09FFD10208DF8030062
:102330002020ADF8000003208DF8020069460B480C
:10234000FFF7D4FE28208DF803004020ADF80000F0
:1023500069460648FFF7CAFE002220210348FFF71E
:1023600059FF0F2001F0C4FE08BD0000000C014021
:10237000F8B504460D4616460223224606210120E2
:1023800000F0C6FA012C04D0022C2FD0032C70D1FF
:102390004DE0012000F08AFE50232D2231462846D0
:1023A0000094FFF73CFF4FF47A7001F07BFE4FF48E
:1023B0007A7001F077FE4FF47A7001F073FE4FF4FB
:1023C0007A7001F06FFE4FF47A7001F06BFE4FF4FB
:1023D0007A7001F067FE002001F0D6FA00F07EFE70
:1023E0002FA20121022000F0B5FA55E0022000F0F2
:1023F0005DFE50232D22314628460094FFF70FFF43
:102400004FF47A7001F04EFE4FF47A7001F04AFEFC
:102410004FF47A7001F046FE22A20121022000F062
:1024200099FA00F05BFE002001F0AEFA34E00320E0
:1024300000F03CFE50232D22314628460094FFF741
:10244000EEFE4FF47A7001F02DFE4FF47A7001F039
:1024500029FE4FF47A7001F025FE13A2012102201B
:1024600000F078FA002001F08FFA00F037FE13E058
:10247000FFE7042000F01AFE50232D2231462846A3
:102480000094FFF7CCFE09A20121022000F062FABD
:10249000002001F079FA00BF00BF00F01FFEF8BD78
:1024A0003100000032000000330000003400000062
:1024B00010B50446022322460621012000F028FA26
:1024C000012C04D0022C10D0032C2AD11BE00120B7
:1024D00000F0ECFD2D2001F0F5F900F0FFFD19A250
:1024E0000121022000F036FA28E0022000F0DEFD93
:1024F00015A20121022000F02DFA00F0EFFD872047
:1025000001F0E0F91AE0032000F0D0FD0FA2012154
:10251000022000F01FFAE12001F0D4F900F0DEFD06
:102520000CE0042000F0C2FD09A20121022000F00D
:1025300011FA40F23B1001F0C5F900BF00BF00F0F6
:10254000CDFD10BD3100000032000000330000005E
:102550003400000000BFFEE710B500230C480288DD
:10256000B421042001F006FF4FF4FA7001F09AFD47
:102570000020FFF785FC0023054802885A21082027
:1025800001F0F8FE4FF4FA7001F08CFD10BD000070
:102590007C00002000BFFEE77047000070B50021FE
:1025A00000230F22C47804B3154C246804F4E064BB
:1025B000C4F5E064210AC1F10403CA40447804FA76
:1025C00003F184781440214309010E4C0678A1558B
:1025D000047804F01F050124AC4005786D11AD00AE
:1025E00005F1E025C5F8004109E0047804F01F0575
:1025F0000124AC40044D0678761145F8264070BDA4
:102600000CED00E000E400E080E100E0024901435D
:10261000024A1160704700000000FA050CED00E06E
:1026200070B500240EE00021204600F0F0F80025EF
:1026300004E0002000F0B2F9681CC5B2802DF8DB80
:10264000601CC4B2082CEEDB70BD000008B501218F
:10265000082000F009FC14208DF8030003208DF8F9
:1026600002004FF48050ADF8000069460A48FFF7B9
:102670003DFD4FF40050ADF8000069460648FFF7F5
:1026800035FD012211030448FFF7C4FD0122510367
:102690000148FFF7BFFD08BD000C014070B50546BD
:1026A000002415E08020204100EA05024FF400518B
:1026B0000E48FFF7AFFD012211030C48FFF7AAFDFA
:1026C00000224FF480510948FFF7A4FD601CC4B2FA
:1026D000082CE7DB012211030448FFF79BFD0022D1
:1026E0004FF480510148FFF795FD70BD000C01408B
:1026F00010B5012251030A48FFF78CFD0122110396
:102700000748FFF787FD00224FF400510448FFF708
:1027100081FD00224FF480510148FFF77BFD10BD81
:10272000000C014010B500224FF400510648FFF79D
:1027300071FD012211030448FFF76CFD01225103D2
:102740000148FFF767FD10BD000C014070B5002483
:1027500006E0002500E06D1CB5F57A7FFBD3641C14
:10276000B4F57A7FF5D3FFF771FFAE2000F006F9DC
:10277000D52000F003F9802000F000F9A82000F037
:10278000FDF83F2000F0FAF8D32000F0F7F8002021
:1027900000F0F4F8402000F0F1F8A12000F0EEF88D
:1027A000C82000F0EBF8DA2000F0E8F8122000F082
:1027B000E5F8812000F0E2F8CF2000F0DFF8D92022
:1027C00000F0DCF8F12000F0D9F8DB2000F0D6F8BA
:1027D000302000F0D3F8A42000F0D0F8A62000F0BC
:1027E000CDF88D2000F0CAF8142000F0C7F8AF2013
:1027F00000F0C4F8FFF714FF70BD10B502460120C9
:1028000000E050430B1EA1F10101FAD110BD70B5DB
:1028100005460C4645F0B00000F0B0F8102141EA42
:10282000141000F0ABF804F00F0000F0A7F870BD32
:102830002DE9F04105460E461746721ED206110ECE
:102840006A1E5206100EFFF7E2FF002409E0A7F10E
:102850002001134A02EB0111085D00F09FF8601C93
:10286000C4B2082CF3DB721ED206110E6A1E0123BD
:1028700003EB4202D0B2FFF7CAFF00240BE0A7F13E
:102880002001074A02EB011204F10801505C00F03C
:1028900085F8601CC4B2082CF1DBBDE8F0810000B3
:1028A000F64E00082DE9F04781460E4690461F4639
:1028B00000241DE0381B411E1020FFF79EFFB8FBCF
:1028C000F0F000F00F050A2D08DA05F13000C2B271
:1028D0003019C1B24846FFF7ABFF07E005F13700FA
:1028E000C2B23019C1B24846FFF7A2FF601CC4B2A1
:1028F000BC42DFDBBDE8F08770B505460C462246DA
:102900000121284600F026F8642001F0CBFB70BDC1
:102910002DE9F04780460E4617461D46002415E077
:10292000281B411E0A20FFF768FFB7FBF0F00A21C1
:10293000B0FBF1F201FB120000F130093019C1B215
:102940004A464046FFF774FF601CC4B2AC42E7DB66
:10295000BDE8F0872DE9F04107460E4615460024F4
:1029600007E02A5D3019C1B23846FFF761FF601CED
:10297000C4B2285D0028F4D1BDE8F08110B504464A
:10298000FFF7B6FE7820FFF789FE0020FFF786FEEE
:102990002046FFF783FEFFF7C5FE10BD10B50446C5
:1029A000FFF7A6FE7820FFF779FE4020FFF776FEBE
:1029B0002046FFF773FEFFF7B5FE10BD00B589B0E6
:1029C0000121084600F040FA0121042000F04CFAF1
:1029D00018208DF823000220ADF8200003208DF888
:1029E000220008A91A48FFF781FB4FF0804000F051
:1029F000B8FD0020ADF81A00ADF8160044F61F60CF
:102A0000ADF818004720ADF8140000208DF81C0028
:102A100005A94FF0804000F003FF01A800F0F5FE8B
:102A20006020ADF804000020ADF80C000120ADF8E6
:102A300006000020ADF80A0001A94FF0804000F028
:102A4000EDFD0121880700F060FD09B000BD000028
:102A50000008014000B589B00121022000F0F4F91E
:102A60000121042000F000FA18208DF82300032033
:102A70008DF822004020ADF8200008A91F48FFF77C
:102A800035FB8020ADF8200008A91C48FFF72EFB7D
:102A90001B4800F066FD0020ADF81A00ADF81600E6
:102AA00044F61F60ADF818004720ADF81400002070
:102AB0008DF81C0005A9124800F0B2FE01A800F034
:102AC000A4FE6020ADF804000020ADF80C00012049
:102AD000ADF806000020ADF80A0001A9084800F092
:102AE00047FD0020ADF80A0001A9054800F096FD59
:102AF0000121034800F009FD09B000BD00080140B4
:102B00000004004000B589B00121022000F09CF9CA
:102B10000121182000F0A8F90121480300F0A4F9D0
:102B200018208DF8230003208DF822000120ADF835
:102B3000200008A93148FFF7D9FA0220ADF820009B
:102B400008A92E48FFF7D2FA4020ADF8200008A9C6
:102B50002B48FFF7CBFA2B4800F003FD2A4800F082
:102B600000FD0020ADF81A00ADF8160044F61F6015
:102B7000ADF818004720ADF8140000208DF81C00B7
:102B800005A9204800F04CFE05A91F4800F048FEAA
:102B900001A800F03AFE6020ADF804000020ADF876
:102BA0000C000120ADF806000020ADF80A0001A9D4
:102BB000144800F085FD0821124800F0D1FD01A95C
:102BC000104800F0D7FD08210E4800F011FE01A9C1
:102BD0000D4800F0CDFC08210B4800F015FD012147
:102BE000084800F092FC0121074800F08EFC01210A
:102BF000054800F096FC09B000BD0000000C014043
:102C00000010014000040040003401407047000003
:102C10002DE9F04F89B00D467FA201210320FFF777
:102C200099FE95F804A0002007900690002409E082
:102C3000285D08A9085508A8005D08B10120069084
:102C4000601CC4B2042CF3DB0698012809D1744837
:102C50000088401C724908800846008800F0BEFACF
:102C600001E000F015FA00240BE008A8005D30B187
:102C70006C4830F81400401C6A4921F81400601CAC
:102C8000C4B2042CF1DBAE7995F80790654FFB8850
:102C9000BA887988388800F0E6F9634805900320FF
:102CA0000490BAF1000F7DD1002486E008A8005DF1
:102CB000002878D001200790079800F0A7FA304646
:102CC00001F08CFF019059480168019802F09AF8D0
:102CD000834601F09FFD21F00041074601F014FDFD
:102CE0000390484601F07AFF01905148016801982D
:102CF00002F088F8834601F08DFD21F0004107467F
:102D000001F002FD02904B494848006801F0DEFEE8
:102D100018D148494648006801F0D8FE12D1304623
:102D200001F05CFF41490860484601F057FF404907
:102D3000086008A8005D4049086008A9085DFFF721
:102D4000B7FB3DE008A8015D3B48006881420FD118
:102D50003549039801F056FF0AD23349029801F031
:102D600051FF05D235480068401C3449086002E034
:102D7000002032490860304601F030FF2B490860DE
:102D8000484601F02BFF2A49086008A8005D2A493F
:102D900008602A480068032808DB00F01DF90020BD
:102DA000264901E00DE006E0086003E008A9085D9F
:102DB000FFF77EFB04E0601CC4B2042CFFF676AF84
:102DC00024E0002420E008A8005DD8B11C48006879
:102DD000022807DB08A9085DFFF76AFB00201849F5
:102DE00008600FE0012000F011FA08A9095D48B25F
:102DF0000FFA89F231B2FFF7BBFA11480068401CA4
:102E00000F490860601CC4B2042CDCDB0D4800F0E4
:102E10006FFA09B0BDE8F08F50524F20000000005B
:102E2000380000203C000020000020414400002029
:102E300048000020000080BF4C000020500000200F
:102E4000540000200038014029B1064AD2690243EB
:102E5000044BDA6104E0034AD2698243014BDA6130
:102E6000704700000010024029B1064A92690243EF
:102E7000044B9A6104E0034A92698243014B9A61D0
:102E8000704700000010024030B5002100220024ED
:102E900000232D4D6D6805F00C0121B1042905D0EA
:102EA000082923D105E0294D056022E0274D056062
:102EB0001FE0254D6D6805F47012234D6D6805F413
:102EC0008034022505EB92421CB9214D5543056023
:102ED0000BE01D4D6D6805F400351DB11C4D5543CB
:102EE000056002E0194D5543056002E0174D05608D
:102EF00000BF00BF144D6D6805F0F0010909154DC4
:102F00006B5C0568DD4045600F4D6D6805F4E06160
:102F1000090A104D6B5C4568DD4085600A4D6D689F
:102F200005F46051C90A0B4D6B5C4568DD40C56016
:102F3000054D6D6805F44041890B074D6B5CC56814
:102F4000B5FBF3F5056130BD0010024000127A00B8
:102F500000093D0014000020240000202DE9F0416C
:102F600005460C466CB90F49284601F0EDFC0746B2
:102F70000D4901F07BFE064601F0DCFD00B2BDE824
:102F8000F081012C0CD10949284601F0DDFC0746EF
:102F9000074901F06BFE064601F0CCFD00B2EEE7FA
:102FA0000020ECE70000FA42008054440000C842D0
:102FB00000D0844610B5C823064802887521082031
:102FC00001F0D8F94FF47A7001F06CF8FFF7C4FA09
:102FD00010BD00007C00002010B5012320480288AD
:102FE000C821002001F0C6F901231D4802881421E0
:102FF000022001F0BFF94FF47A7001F053F84FF45A
:10300000FA7001F04FF8012315480288642100206E
:1030100001F0B0F90123124802881421022001F0C6
:10302000A9F94FF47A7001F03DF84FF4FA7001F00D
:1030300039F801230A480288C821002001F09AF9D2
:103040000123074802881421022001F093F901238B
:10305000034802884121002001F08CF910BD0000D6
:103060007C00002070472DE9F04107460C461546CC
:103070001E46384600F044F8204600F059F828462D
:1030800000F06EF8304600F083F8BDE8F0810000F3
:1030900010B502A1044800F0F5F810BD6E372E7689
:1030A000616C3D30FFFFFF000050004010B504464A
:1030B000224604A10748FDF745F90649064800F0F5
:1030C000E1F810BD6E362E76616C3D2564FFFFFF82
:1030D000000000004B0200200050004010B504A189
:1030E0000648FDF72FF90548FEF77EFE10BD0000EB
:1030F0006E372E76616C3D31000000004B020020DF
:1031000010B50446224604A10748FDF71BF90649FD
:10311000064800F0B7F810BD6E382E76616C3D257C
:1031200064FFFFFF000000004B0200200050004041
:1031300010B50446224604A10748FDF703F90649E5
:10314000064800F09FF810BD6E392E76616C3D2563
:1031500064FFFFFF000000004B0200200050004011
:1031600010B50446224604A10748FDF7EBF80649CE
:10317000064800F087F810BD6E31302E76616C3D48
:103180002564FFFFFF0000004B02002000500040BC
:1031900010B50446224604A10748FDF7D3F80649B6
:1031A000064800F06FF810BD6E31312E76616C3D2F
:1031B0002564FFFFFF0000004B020020005000408C
:1031C00010B502A1044800F05DF810BD6E302E76F7
:1031D000616C3D31FFFFFF000050004010B5044618
:1031E000224604A10748FDF7ADF80649064800F05D
:1031F00049F810BD6E342E76616C3D2564FFFFFFEB
:10320000000000004B0200200050004010B50446B2
:10321000224604A10748FDF795F80649064800F044
:1032200031F810BD6E352E76616C3D2564FFFFFFD1
:10323000000000004B0200200050004001460D48F5
:10324000814208D10C480078012810D100200A4A98
:103250001070012070470948814208D10848007861
:10326000012804D10020064A10700120F2E7002056
:10327000F0E7000000380140350000200044004025
:10328000360000200FB410B59AB004461EA8009076
:1032900001A8009A1D99FDF743F80020009001A9AC
:1032A000204600F035F81AB010BC5DF814FB2DE98B
:1032B000F04107460D461646002405E0295D3846D4
:1032C00000F006F8601C84B2B442F7DBBDE8F08180
:1032D00070B504460D462946204600F00AFD00BFA1
:1032E0008021204600F0C7FB0028F9D070BD000007
:1032F0001CB5044604A103C9CDE9000105226946B5
:103300002046FFF7D4FF1CBDFF000200FE000000B6
:1033100070B506460C46002505E0615D3046FFF7B6
:10332000D7FF681CC5B2605D0028F6D170BD0000F3
:103330001CB5044604A103C9CDE900010522694674
:103340002046FFF7B4FF1CBDFF010000FE00000097
:1033500010B5FFF733FBFFF77DFBFFF7D3FB10BD85
:1033600010B500F001F810BD0CB5002001900090E0
:103370003348006840F480303149086000BF30486D
:10338000006800F4003000900198401C0190009803
:1033900018B90198B0F5A06FF1D12948006800F480
:1033A000003010B10120009001E000200090009852
:1033B000012843D12348006840F0100021490860EB
:1033C0000846006820F0030008600846006840F0E6
:1033D000020008601A484068194948600846406879
:1033E00048600846406840F480604860084640688D
:1033F00020F47C1048600846406840F4E8104860BB
:103400000846006840F08070086000BF0C48006803
:1034100000F000700028F9D00948406820F003004F
:10342000074948600846406840F00200486000BF15
:103430000348406800F00C000828F9D10CBD0000DA
:103440000010024000200240042808D14FF0E02183
:10345000096941F004014FF0E022116107E04FF0EB
:10346000E021096921F004014FF0E0221161704769
:103470007047000010B51348006840F00100114982
:10348000086008464068104908400E4948600846F0
:1034900000680E4908400B4908600846006820F49F
:1034A000802008600846406820F4FE0048604FF421
:1034B0001F008860FFF754FF4FF000600449086068
:1034C00010BD0000001002400000FFF8FFFFF6FEF4
:1034D00008ED00E010B50121084800F031F860B1B6
:1034E0000121064800F00EF80548D0E90020521CE2
:1034F00040F100000249C1E9002010BD000C00406D
:1035000058000020CA430282704721B1028842F06D
:103510000102028004E002884FF6FE731A40028026
:10352000704731B1B0F8442042F40042A0F8442082
:1035300005E0B0F84420C2F30E02A0F84420704722
:1035400030B50246002000230024158A05EA010355
:10355000958905EA010413B10CB1012000E00020B7
:1035600030BD01894FF6F8721140018170470000AB
:1035700070B5002400220023058C4FF6FE763540FE
:103580000584028C8388048B4FF68F752C40B51E02
:103590002C400D882C43751E2A400D892A434D88E6
:1035A0002A43144DA8420BD0134DA84208D0134D06
:1035B000A84205D0124DA84202D0124DA84213D104
:1035C0004FF6F7752A404D892A434FF6FB752A407E
:1035D0008D882A434FF6FF652B404FF6FF552B4051
:1035E0008D892B43CD892B4383800483CD888586A9
:1035F000028470BD002C01400034014000400140B5
:1036000000440140004801400A460021018B4FF66A
:10361000F7731940114301837047000070B500240F
:1036200000220023058C4FF6EF7635400584028C8E
:103630008388048B48F6FF752C404FF6FF452C40DD
:103640000D884FF6FF7606EA05252C434FF6DF7509
:103650002A400D8906EA05152A434D8806EA051514
:103660002A43154DA84202D0144DA8421DD14FF651
:103670007F752A404D894FF6FF7606EA05152A43E5
:103680004FF6BF752A408D8806EA05152A434FF686
:10369000FF352B404FF2FF752B408D8906EA8505DB
:1036A0002B43CD8906EA85052B4383800483CD888F
:1036B0000587028470BD0000002C014000340140E9
:1036C00070B5002400220023058C4FF6FF663540BC
:1036D0000584028C8388848B4FF68F752C404FF6BF
:1036E000FC752C400D882C434FF6FF552A400D8960
:1036F0004FF6FF7606EA05252A434D8806EA05259A
:103700002A43154DA84202D0144DA8421DD14FF2B4
:10371000FF752A404D894FF6FF7606EA05252A43B4
:103720004FF6FF352A408D8806EA05252A434EF6D6
:10373000FF752B404DF6FF752B408D8906EA051568
:103740002B43CD8906EA05152B4383808483CD88DE
:103750008587028470BD0000002C014000340140C8
:103760000A460021818B4FF6F7731940114381837C
:103770007047000070B5002200230024058C4EF62F
:10378000FF7635400584038C8488828B48F6FF756C
:103790002A404FF6FF452A400D884FF6FF7606EA8D
:1037A00005252A434DF6FF752B400D8906EA0535A0
:1037B0002B434D8806EA05352B430B4DA84202D01A
:1037C0000A4DA84208D14BF6FF752C408D894FF663
:1037D000FF7606EA85152C4384808283CD88A0F885
:1037E0004050038470BD0000002C014000340140B3
:1037F0000A460021818B4FF2FF7319404FF6FF7389
:1038000003EA02231943818370470021018041802C
:103810008180C180018141818181C1817047000027
:10382000002202881D4B98420ED01D4B98420BD0AF
:10383000B0F1804F08D01B4B984205D01A4B9842EC
:1038400002D01A4B984204D14FF68F731A404B881E
:103850001A43174B984207D0164B984204D04FF6A4
:10386000FF431A40CB881A4302808B8883850B88DC
:1038700003850A4B98420BD0094B984208D00E4B57
:10388000984205D00D4B984202D00D4B984201D181
:103890000B7A03860123838270470000002C0140CD
:1038A000003401400004004000080040000C0040CB
:1038B000001000400014004000400140004401405E
:1038C000004801402DE9F04106462D2E07D0872EF5
:1038D00008D0E12E09D0A6F23B1060B908E0244CD4
:1038E000244D0AE0244C234D07E0244C214D04E0F4
:1038F000234C204D01E0BDE8F08100BF204601F0DF
:1039000035F987B201231F4802883946002000F0AC
:1039100031FD4FF47A7000F0C5FB284601F026F91E
:1039200087B20023174802883946022000F022FDA2
:103930004FF47A7000F0B6FB4FF47A7000F0B2FBEF
:103940000023104802885A21022000F013FD4FF492
:10395000FA7000F0A7FB01230A48028841210020E9
:1039600000F008FD4FF4FA7000F09CFB00BFC2E7C6
:103970000000E6420000484200004D43000087433B
:10398000000020417C00002070B5054635B1012DB6
:1039900006D0022D06D0032D08D105E01C4C06E010
:1039A0001C4C04E01C4C02E01C4C00E070BD00BF4D
:1039B000204601F0DBF886B201231948028831461F
:1039C000002000F0D7FC4FF47A7000F06BFB4FF44E
:1039D0007A7000F067FB4FF47A7000F063FB4FF4ED
:1039E0007A7000F05FFB4FF47A7000F05BFB4FF4ED
:1039F0007A7000F057FB012309480288412100201A
:103A000000F0B8FC4FF4FA7000F04CFB00BFCDE7BB
:103A10000000E64200004D430000874300002041C3
:103A20007C00002010B5034A0349044800F05AF80E
:103A300010BD0000350000208D000020003801403E
:103A400010B50022002340F66A14A14200D100BF45
:103A50000A1201249440A3B2DC43048010BD21B1BA
:103A6000828942F40052828104E082894DF6FF731C
:103A70001A408281704702460020B1F5007F00D1D4
:103A800000BF13880B400BB1012000E000207047FD
:103A900070B50246002400230025002040F66A1677
:103AA000B14200D100BFC1F3421501F01F0301264E
:103AB00006FA03F3012D02D19689334006E0022D68
:103AC00002D1168A334001E0968A33400C12012657
:103AD00006FA04F41688344013B10CB1012000E05A
:103AE000002070BD2DE9F04180460E46174640F299
:103AF00025514046FFF7CCFF01285BD1404600F03E
:103B0000F3F8C4B22C48007820B1012811D0022863
:103B100044D11DE0FF2C06D1012027490870002068
:103B20002649087004E000202349087023490870E2
:103B30003AE0224801780078401C204A1070745402
:103B4000104600780D2802DB02201B4908702BE08C
:103B5000FE2C1DD100201849087001203870002566
:103B600008E0725D05EB4500C1B202230420FEF7B8
:103B700099FE6D1C0D2DF4DB1148FFF7D9FB00BF3A
:103B800040F225514046FFF783FF0128F8D004E0BA
:103B90000020094908700949087005E0002006491D
:103BA00008700649087000BF00BF40F2255140462A
:103BB000FFF746FFBDE8F0813A0000203B000020FF
:103BC00000380140F0B503460024002600250020FF
:103BD00040F66A17B94200D100BF1846C1F342143B
:103BE00001F01F06012707FA06F5012C01D10C3060
:103BF00004E0022C01D1103000E014301AB1076843
:103C00002F43076002E00768AF430760F0BD000084
:103C10002DE9F04786B005460E460024A24600BFB7
:103C2000A1460027B08900B100BF2F462C8A4CF670
:103C3000FF700440F08804432C82AC894EF6F310E8
:103C40000440B08831890843718908430443AC813A
:103C5000AC8A4FF6FF400440B0890443AC8201A80F
:103C6000FFF712F91F48874202D1DDF810A001E0EA
:103C7000DDF80CA0A88900F4004040B10AEBCA00AE
:103C800000EB0A1031684900B0FBF1F807E00AEBDD
:103C9000CA0000EB0A1031688900B0FBF1F864201B
:103CA000B8FBF0F004012009642101FB1089A88908
:103CB00000F4004040B1322000EBC900B0FBF1F04D
:103CC00000F00700044308E0322000EB09106421F3
:103CD000B0FBF1F000F00F0004432C8106B0BDE80A
:103CE000F08700000038014001468888C0F30800D2
:103CF0007047C1F30802828070474FF4165101608B
:103D000000218180C18001810C21418100218181BC
:103D1000704700BFFEE770B505460C46284600F028
:103D2000EDF8204600F018F90020FEF79BF970BD71
:103D300008B5FEF729F93FA10120FEF7DDFD41A1FD
:103D40000220FEF7D9FD00200A2364220121009001
:103D50000846FEF7A1F9642000F0A4F93DA1032074
:103D6000FEF7CAFD06E040A10420FEF7C5FD0A20CB
:103D700000F098F94FF400613E48FEF742FA00283F
:103D8000F1D100210120FEF74FF93BA10120FEF700
:103D9000B3FD142000F086F93AA10220FEF7ACFD35
:103DA00000200A236422012100900220FEF774F90A
:103DB000642000F077F937A10320FEF79DFD06E0AF
:103DC00039A10420FEF798FD0A2000F06BF94FF4AA
:103DD00080612848FEF715FA0028F1D10021022061
:103DE000FEF722F933A10220FEF786FD142000F031
:103DF00059F901203249087032A10320FEF77CFDF9
:103E000000210120FEF710F900210220FEF70CF935
:103E100030A10420FEF770FD0020324908803249AD
:103E2000088032A10120FEF767FD4FF47A7000F0A0
:103E300039F908BD496E6974204C696D6974205365
:103E40005700000058204D6F746F722053746172D8
:103E500074000000436865636B696E672058204CEE
:103E6000696D69740000000058204D6F76696E67B7
:103E70002E2E2E000020014058204C696D697420C0
:103E80004869740059204D6F746F722053746172C9
:103E900074000000436865636B696E672059204CAD
:103EA000696D69740000000059204D6F76696E6776
:103EB0002E2E2E0059204C696D69742048697400BB
:103EC000760000205869616E5765692053756363F9
:103ED000657373004D6F746F72732053746F7070DD
:103EE0006564000072000020740000205265736554
:103EF0007420583D302C20593D3000003EB504461A
:103F0000002C12DD012000212546CDE90041029060
:103F1000E01704EB5070C0F3CF0264230121084680
:103F2000FEF748F8322000F0BDF8002C13DA01212A
:103F3000002260426542CDE901210090E81705EBBF
:103F40005070C0F3CF02642300210120FEF732F845
:103F5000322000F0A7F83EBD3EB50446002C12DD2D
:103F6000012000212546CDE900410290E01704EB35
:103F70005070C0F3CF02642301210220FEF71AF82B
:103F8000322000F08FF8002C13DA01210022604269
:103F90006542CDE901210090E81705EB5070C0F3B0
:103FA000CF02642300210220FEF704F8322000F043
:103FB00079F83EBD490050EAC12018BF04204A0DDF
:103FC00018BF40F0010040F2FF72B2EB515F08BF32
:103FD00040F00200012808BF0520704730380A2849
:103FE00001D2012070470020704702464FF4FA606A
:103FF0005043B42390FBF3F000F5FA7081B2B1F5B1
:10400000FA7F02DA4FF4FA70704740F6C41081422A
:1040100000DDF9E70846F7E702464FF4FA6050433F
:104020004FF4877390FBF3F000F5FA7081B2B1F5AD
:10403000FA7F02DA4FF4FA70704740F6C4108142FA
:1040400000DDF9E70846F7E703468B4201DA084648
:104050007047934201DD1046FAE71846F8E7000082
:1040600010B56FF00400FFF7EFF90A4800680A493D
:10407000B0FBF1F0094908700846007800EB4001F8
:10408000C1EBC0104FF6FF7101EAC000044908807F
:1040900010BD00000000002000127A00280000205F
:1040A0002A0000200146114A12884A434FF0E023BB
:1040B0005A6100229A611A46126942F001021A619D
:1040C00000BF4FF0E022106900F001021AB100F4C5
:1040D0008032002AF5D04FF0E022126922F001026E
:1040E0004FF0E0231A6100229A6170472A000020F5
:1040F0000146114A12784A434FF0E0235A610022E8
:104100009A611A46126942F001021A6100BF4FF02B
:10411000E022106900F001021AB100F48032002A96
:10412000F5D04FF0E022126922F001024FF0E023B7
:104130001A6100229A617047280000201EB531B133
:10414000012908D002290CD0032917D10FE0002241
:104150000092019213E040F252320092002201924A
:104160000DE00022009244F26822019207E040F242
:104170005232009244F26822019200E000BF00BF78
:104180009DE81C0080E81C001EBD0000FFF768FFD2
:104190004FF47A70FFF786FF4FF47A70FFF782FFD3
:1041A0004FF47A70FFF77EFF4FF47A70FFF77AFFD3
:1041B0004FF47A70FFF776FF00F00AF900F064F927
:1041C00000F0A4F900F0E6F900F028FAFFF7C0F8D3
:1041D000FEF7BCFAFDF7D8FEFEF7A2F823A20121F4
:1041E0000846FEF7B7FB0123C8224121002000F05A
:1041F000C1F84FF47A70FFF755FF1EA2012108465F
:10420000FEF7A8FBFEF7A8F94FF47A70FFF74AFF14
:104210001AA201210846FEF79DFBFFF789FD4FF426
:104220007A70FFF73FFF17A201210846FEF792FBC5
:10423000FEF7F6F915A201210846FEF78BFB13E005
:1042400014A201210846FEF785FB1448FEF7F6FF8D
:1042500050B1FEF7B5FF12A201210220FEF77AFB52
:1042600011490E48FEF7D4FCEAE7000053544152CE
:1042700054310000535441525432000053544152BF
:1042800054330000535441525434000053544152AB
:104290005436000053544152543700000038014056
:1042A00052454345564945008D0000202DE9F84F01
:1042B00080460D4600260027B146B2460820FBF78F
:1042C000FFFF044614B90020BDE8F88FFA20002350
:1042D0004FF4967219460090404600F02AF80646C0
:1042E000C82000234FF4877219460090284600F03A
:1042F00020F8074632363237304600F057FC834606
:104300000021FEF72BFE2060384600F04FFC83466C
:104310000121FEF723FE60602046D5E770B5044614
:10432000049D601AEE1A7043561A90FBF6F018447A
:1043300070BD70B50446049D601AEE1A7043561A9B
:1043400090FBF6F0184470BD10B590B004462346BB
:1043500005A240216846FCF70BF869460448FEF7C1
:10436000D7FF10B010BD00007B25737D000000005A
:10437000004400402DE9F04186B005460E46174640
:104380009846B8F1000F04D03046FFF745FE0446CA
:1043900003E03046FFF729FE04462B4606A2102113
:1043A00002A8CDE90047FBF7E3FF02A90748FEF7A3
:1043B000AFFF06B0BDE8F0812325303364502530CF
:1043C000346454253034642100000000004400406F
:1043D00000B587B001218803FEF746FD01210420C6
:1043E000FEF742FD18208DF81B004FF40070ADF869
:1043F000180003208DF81A0006A92148FDF776FE63
:1044000048208DF81B004FF48060ADF818000320A1
:104410008DF81A0006A91A48FDF768FE4FF41650E9
:1044200002900020ADF814000C20ADF8120000201E
:10443000ADF81000ADF80E00ADF80C0002A911485F
:10444000FFF7E6FB012240F225510E48FFF7BAFBC9
:104450004FF4A060FEF7DAF825208DF80400012063
:104460008DF8070000208DF805008DF8060001A8E2
:10447000FEF794F801210348FFF7F1FA07B000BDF9
:10448000000801400038014000B585B00121480412
:10449000FEF7DAFC01210420FEF7E6FC0420ADF86B
:1044A000000018208DF8030003208DF802006946F3
:1044B0001448FDF71BFE0820ADF8000048208DF8D9
:1044C000030069460F48FDF711FE01A8FFF715FC30
:1044D0004FF4E13001900020ADF80800ADF80A007B
:1044E000ADF80C000C20ADF80E000020ADF8100067
:1044F00001A90548FFF78CFB01210348FFF7AFFA3C
:1045000005B000BD000801400044004000B585B082
:1045100001218804FEF798FC01211020FEF7A4FC7D
:104520004FF48060ADF8000018208DF803000320E0
:104530008DF8020069461548FDF7D8FD4FF400607C
:10454000ADF8000048208DF8030069460F48FDF7DC
:10455000CDFD01A8FFF7D1FB4FF4E1300190002021
:10456000ADF80800ADF80A00ADF80C000C20ADF86D
:104570000E000020ADF8100001A90548FFF748FB28
:1045800001210348FFF76BFA05B000BD000C0140A4
:104590000048004000B585B00121C804FEF754FC76
:1045A00001211020FEF760FC4FF48060ADF80000A0
:1045B00018208DF8030003208DF802006946154885
:1045C000FDF794FD4FF40060ADF8000048208DF831
:1045D000030069460F48FDF789FD01A8FFF78DFB31
:1045E0004FF4E13001900020ADF80800ADF80A006A
:1045F000ADF80C000C20ADF80E000020ADF8100056
:1046000001A90548FFF704FB01210348FFF727FA3A
:1046100005B000BD00100140004C004000B585B061
:1046200001210805FEF710FC01211020FEF71CFCFB
:1046300001212020FEF718FC4FF48050ADF8000057
:1046400018208DF8030003208DF8020069461548F4
:10465000FDF74CFD0420ADF8000048208DF8030064
:1046600069461148FDF742FD01A8FFF746FB4FF4EC
:10467000E13001900020ADF80800ADF80A00ADF877
:104680000C000C20ADF80E000020ADF8100001A9C0
:104690000648FFF7BDFA01210448FFF7E0F905B02D
:1046A00000BD000000100140001401400050004017
:1046B00010B500290AD00878002807D005487844AA
:1046C000FCF780FF002801D0002010BD024878448C
:1046D00010BD0000460F00003E0F000010B500297D
:1046E0000AD00878002807D005487844FCF76AFF0C
:1046F000002801D0002010BD0248784410BD000001
:10470000360F00002E0F000021F00042A2F160528F
:10471000B2F5801F01F0004328BFD2F17F6C0BD9A6
:104720005FEA001C43EAC20242EB507018BF7047B8
:1047300028BF20F001007047B2F5801FBCBF1846AB
:1047400070474FEA410C1CF5001F02D2084600F0EA
:1047500054BB70B500F009F800000089FFF7F6BF00
:104760004FF00040A0F5800070470EF1020E2EF0D1
:10477000030E5EF8046B364205D4012A43EB0305B1
:1047800015F5001F12D8012841EB010C1CF5001F84
:104790000CD80ED14FEAD17C15F5001F0CEB4C0C58
:1047A0000CF1020C08BF4CEBD37C04E04FF0080C7A
:1047B00001E04FEAD37C0CEB4C0526FA05F606F037
:1047C0000706B6F1040C06D20EEB860CBDE870406D
:1047D0004CF0010C6047DFE80CF0090B02024FF0CF
:1047E00000414FF00000A1F5002170BD19461046B0
:1047F000012851EB010418BFD4F5001484BF002038
:1048000001F0004170BD0808A0F500114FEA310128
:104810007047000043004FEAD30C4FEA3C0C434082
:104820001FBF40070CF1605113F0FE4F70471CF0A2
:10483000006F03D100200CF0004170470CF00043E2
:1048400043EA507010B540EACC0000F090FA00BF87
:10485000000000924FEA0001FFF7D5BF4FF0004182
:104860004FF00000A1F500217047000090EA010F11
:1048700048BF81F0004100F1CC82421A3CBF801A4F
:1048800089184FEAD0524FF07F4C1CEA410FA2EB3F
:10489000D15318BF9CEA026F00F03B804FF0004CF0
:1048A0004CEA00204CEA012121FA03FC10EB0C0C2D
:1048B0001ED202F1FF325FEA1C2040EBC25038BF2B
:1048C00070471CF07F0F4FEA400C18BFBCF17F4FC0
:1048D00038BF7047C3F12003994008BF20F00100A2
:1048E000BCF17F4F38BF7047A0F1C04000F085BADF
:1048F0004FEA3C00000A40EBC25028BF1CF0FF0FFB
:104900004FEA400CE6D018BFBCF17F4F38BF70476C
:10491000EAE79CEA026F05D010EA5C0F08BF00F0DE
:104920000040704710B500F022FA00BF64FBBE3EA5
:10493000401058BFC0F14040491058BFC1F140413C
:104940008142EFF3008070474FF47F0C1CEAD012D5
:104950001EBF1CEAD11392EA0C0F93EA0C0F00F071
:10496000858090EA010F48BF42F4807240F4000C49
:1049700041F400002CF07F4120F07F4000B58142DF
:10498000A2EB03020FF2081CACEB504EC0F100008A
:104990009EF800E04FEA4E0E00FB0EFC38BF4900C7
:1049A0004FEA2C1C02F5FA020CFB0EF34FEACE1E66
:1049B0004FEA112C4FEAC1210EEB635E42EB22421B
:1049C0000EFB0CFC4FEA1C5300FB03114FEA112CA9
:1049D0004FEA01310EFB0CFC4FEADC4C00FB0C11E2
:1049E000C14228BF09184CEB03335DF804EB10EB10
:1049F000410143EBC250B2F57C0F38BF704729D557
:104A000012F0F00F1CBF00F1C04000F000407047F2
:104A1000008182838485868788898B8C8D8E8F9197
:104A20009293959697999A9C9D9FA0A2A3A5A7A8BB
:104A3000AAACAEB0B2B3B5B7B9BCBEC0C2C5C7C9E7
:104A4000CCCED1D4D7D9DCDFE2E6E9ECF0F3F7FA4B
:104A5000FE0000004FEA400C0CF1807CBCF17E4F60
:104A600028BF7047B0F1C04000F0C7B990EA010F0D
:104A70000CEAD11348BF42F48072624538BF6345E7
:104A800007D213F47F0F16D080EA010000F0004037
:104A9000704710B500F06BF9097EFC3E00F005B8D8
:104AA00080EA010000F00040704780EA010000F059
:104AB000004000F0A2B912F47F0F04BF0248704713
:104AC00080EA010000F099B90000C07F50EA010CB3
:104AD00000F113801CF5000F58BFBCF5000F01D486
:104AE0008842704707D710F5000F58BF11F5000F27
:104AF00015D488427047894270471CF5000F04D5D1
:104B0000BCF5000FF7D5814270474FF0807C1CEB5D
:104B1000400F38BF1CEB410F01D28142704710B5E6
:104B200000F025F9922449004FF000504FF08051D9
:104B3000FFF7FEBE41000B0ED3F19E0208D950F4E0
:104B400000034FEA032323FA02F048BF40427047B4
:104B500010B500F00CF900BF499224800020704786
:104B60006FF0004282EA200070470000C10DD1F1D1
:104B70009E0206DB4FEA002343F0004323FA02F0D3
:104B80007047004207D54FEA4001B1F1FE4F02D213
:104B90004FF00000704710B500F0E9F8499224800A
:104BA000002070476FEA20007047000010F00041BD
:104BB00048BF4042B0FA80F310FA03F2C3F19D03FC
:104BC0000BD051EAC35101EB1220530638BF704796
:104BD00000F1010008BF20F001007047B0FA80F337
:104BE00010FA03F2C3F19D030AD0D90501EB12209C
:104BF000530638BF704700F1010008BF20F00100E4
:104C00007047000050EA010C00F113801CF5000F02
:104C100058BFBCF5000F01D48842704707D710F584
:104C2000000F58BF11F5000F15D488427047894214
:104C300070471CF5000F04D5BCF5000FF7D5814275
:104C400070474FF0807C1CEB400F38BF1CEB410FCE
:104C500001D28142704710B500F089F892244900D2
:104C60004FF000504FF08051FFF762BE4FF47F0CC1
:104C70001CEAD0121EBF1CEAD11392EA0C0F93EA71
:104C80000C0F00F0478090EA010F48BF42F4807299
:104C90004FF0004C4CEA00204CEA012102EB0302E9
:104CA000A0FB0113A2F50002002918BF43F0010385
:104CB0005B0028BF4FEA330342EB22425FEA132C2A
:104CC0004CEBC2502EBFBCEB436FB2F57C0F70476C
:104CD0004FEA036CBCF1004F08BF20F00100B2F5B1
:104CE0007C0F38BF70470BD582F0FF0212F5803F72
:104CF000C8BF704700F1C040D8BF00F00040704707
:104D000000F5000C5FEA4C0C48BF7047B0F1C040A2
:104D100000F073B890EA010F0CEAD11348BF42F4D7
:104D20008072624538BF634504D280EA010000F01A
:104D30000040704710B500F01AF800BF8900013E2E
:104D400000F007B800F009B85FEA410C5FEA1C6C9C
:104D500008D080EA010000F050B85FEA400C5FEA3A
:104D60001C6CF6D14FF00040A0F5800070470EF1AA
:104D7000020E2EF0030E5EF8044B244204D44FEAD8
:104D80004102B2F17F4F11D84FEA4003B3F17F4F98
:104D90000CD80ED14FEAD07CB2F17F4F0CEB4C0C0B
:104DA0000CF1020C08BF4CEBD17C04E04FF0080C76
:104DB00001E04FEAD17C0CEB4C0324FA03F404F03D
:104DC0000704B4F1040C06D20EEB840CBDE81040CD
:104DD0004CF0010C6047DFE80CF0070802024FF0CE
:104DE0000040A0F5800010BD0846420018BFD2F177
:104DF000807288BF00F0004010BDFF2141EAD05012
:104E0000C005704790EA010F48BF81F000413FF5AF
:104E100034AD421A04D882F00042A0EB02001144E3
:104E20004FEAD0524FF07F4C1CEA410FA2EBD15316
:104E300018BF9CEA026F4AD04FF0004C4CEA0020A9
:104E40004CEA012121FA03FCB0EB0C0C0FD412F058
:104E5000FE0F36D05FEA4C001DD5001240EBC25069
:104E600038BF70471CF03F0F18BF70470BE0A2F12E
:104E700001025FEA1C2040EBC25038BF70471CF0B3
:104E80007F0F18BF7047C3F12003994014BF401E25
:104E900020F00100704780084FEA122308BF7047D6
:104EA000B0FA80FCA2EB0C02CCF1280C60FA0CF0FA
:104EB00093EA122F04BF00EBC25070474FEAC37051
:104EC0007047130A5FEADC1008BF7047F6E79CEAF8
:104ED000026F04D010EA5C0F08BF0020704710B5C5
:104EE000FFF745FF40DFF63E81F000407047FBF7DB
:104EF0003DBFFCF771B8000000000000000000009A
:104F0000000000000000000000F8000000000000A9
:104F100000333000000000100C06100C06000000EA
:104F200000000000000040C07840C0784000043F0E
:104F300004043F040400007088FC083000000018DE
:104F400020FF211E0000F008F000E0180000002102
:104F50001C031E211E0000F00888700000001E21A6
:104F600023241927211010160E0000000000000055
:104F7000000000000000000000E018040200000033
:104F800000071820400000020418E0000000004064
:104F9000201807000000404080F0804040000202DE
:104FA000010F01020200000000F0000000000101FA
:104FB000011F01010100000000000000000080B09E
:104FC0007000000000000000000000000000000170
:104FD000010101010101000000000000000000309B
:104FE0003000000000000000000080601804006035
:104FF00018060100000000E010080810E000000F93
:10500000102020100F00001010F8000000000020F9
:10501000203F202000000070080808887000003041
:1050200028242221300000300888884830000018E9
:10503000202020110E000000C02010F80000000702
:105040000424243F240000F8088888080800001978
:10505000212020110E0000E0108888180000000FA9
:10506000112020110E0000380808C8380800000080
:10507000003F000000000070880808887000001CD5
:10508000222121221C0000E010080810E00000008E
:10509000312222110F00000000C0C00000000000FB
:1050A0000030300000000000008000000000000020
:1050B0008060000000000000804020100800000117
:1050C00002040810200040404040404040000404DA
:1050D00004040404040000081020408000000020A4
:1050E000100804020100007048080808F0000000E1
:1050F000003036010000C030C828E810E000071872
:10510000272423140B000000C038E0000000203CDE
:1051100023020227382008F8888888700000203F82
:10512000202020110E00C030080808083800071899
:1051300020202010080008F808080810E000203F90
:10514000202020100F0008F88888E8081000203F71
:1051500020202320180008F88888E8081000203F45
:10516000200003000000C0300808083800000718BD
:105170002020221E020008F808000008F808203F3E
:10518000210101213F20000808F808080000002044
:10519000203F2020000000000808F8080800C08018
:1051A00080807F00000008F888C028180800203F91
:1051B00020012638200008F8080000000000203FE9
:1051C00020202020300008F8F800F8F80800203FE0
:1051D000003F003F200008F830C00008F808203FDA
:1051E000200007183F00E01008080810E0000F102A
:1051F000202020100F0008F808080808F000203FC1
:10520000210101010000E01008080810E0000F185B
:10521000242438504F0008F8888888887000203F80
:105220002000030C3020007088080808380000387F
:10523000202121221C00180808F808081800000086
:10524000203F2000000008F808000008F808001FB0
:10525000202020201F000878880000C8380800009F
:1052600007380E010000F80800F80008F800033CB9
:105270000700073C03000818688080681808203081
:105280002C03032C30200838C800C8380800000060
:10529000203F2000000010080808C8380800203807
:1052A000262120201800000000FE0202020000005B
:1052B000007F40404000000C30C0000000000000B3
:1052C00000010638C00000020202FE00000000409B
:1052D00040407F00000000000402020204000000C1
:1052E00000000000000000000000000000008080BE
:1052F00080808080808000020204000000000000A6
:105300000000000000000000808080800000001984
:10531000242222223F2008F8008080000000003F65
:10532000112020110E000000008080800000000E7F
:10533000112020201100000000808088F800000E5D
:10534000112020103F200000808080800000001F7E
:10535000222222221300008080F0888888180020F2
:10536000203F202000000000808080808000006BB3
:1053700094949493600008F8008080800000203F9F
:10538000210000203F2000809898000000000020AD
:10539000203F20200000000000809898000000C0FE
:1053A0008080807F000008F8000080808000203F1F
:1053B00024022D302000000808F800000000002022
:1053C000203F202000008080808080808000203F5F
:1053D00020003F20003F8080008080800000203F30
:1053E000210000203F200000808080800000001FFE
:1053F000202020201F00808000808000000080FF8F
:10540000A12020110E000000008080808000000E8E
:10541000112020A0FF8080808000808080002020DC
:105420003F21200001000000808080808000003348
:10543000242424241900008080E0808000000000E3
:10544000001F202000008080000000808000001FDE
:10545000202020103F20808080000080808000017C
:105460000E300806010080800080008080800F30B0
:105470000C030C300F000080800080808000002032
:10548000312E0E312000808080000080808080815D
:105490008E701806010000808080808080000021CE
:1054A000302C2221300000000000807C020200002D
:1054B0000000003F404000000000FF00000000002E
:1054C0000000FF0000000002027C8000000000409D
:1054D000403F000000000006010102020404000039
:1054E00000000000000004000008000000000000B0
:1054F0000002000100001000000000000000000099
:1055000030313233343536373839414243444546F9
:1055100040305800303132333435363738396162F3
:105520006364656640307800303132333435363765
:1055300038396162636465667870003031323334C3
:10554000353637383941424344454658500000000B
:1055500002400000000000A0000000000540000024
:10556000000000C8000000000C4000000000409C4B
:1055700000000000194000000020BCBE0000000038
:1055800034400000BFC91B8E00000004B54000007D
:10559000504BCFD06607E2CF010000006C41000005
:1055A0003E8251AADFEEA73401000000D94200007C
:1055B000DCB5A0E23A301F97FFFFFFFFB4450000C3
:1055C000FD25A0C8E9A3C14FFFFFFFFFFF3F00007B
:1055D0000000008000000000FF3F0000000000808D
:1055E000000000003057000800000020800000008C
:1055F0006C010008B05700088000002090080000EF
:10560000880100081C00000043000000F8FFFFFFB5
:105610000C0000000E0000000F0000002E00000033
:105620001001000043000000F8FFFFFF0040404071
:105630004040404040404141414141404040404065
:105640004040404040404040404040404005020211
:1056500002020202020202020202020202202020D0
:10566000202020202020200202020202020290902C
:10567000909090901010101010101010101010102A
:10568000101010101010101002020202020288887E
:10569000888888880808080808080808080808088A
:1056A0000808080808080808020202024000000072
:1056B00000000000000000000000000000000000EA
:1056C00000000000000000000000000000000000DA
:1056D00000000000000000000000000000000000CA
:1056E00000000000000000000000000000000000BA
:1056F00000000000000000000000000000000000AA
:105700000000000000000000000000000000000099
:105710000000000000000000000000000000000089
:105720000000000000000000000000000000000079
:1057300000A24A040000000000000000010203046F
:105740000607080900000000010203040102030427
:105750000607080902040608000000002D00870063
:10576000E1003B010000000000000000000000001C
:1057700000000000000080BF000080BFFFFFFFFFAF
:105780000000000000000000000000000000000019
:105790000000000000000000000000000000000009
:1057A000000000000000000000000000F401000004
:0400000508000131BD
:00000001FF
